{
  "contractName": "ItemManager",
  "abi": [
    {
      "anonymous": false,
      "inputs": [
        {
          "indexed": false,
          "internalType": "uint256",
          "name": "_itemIndex",
          "type": "uint256"
        },
        {
          "indexed": false,
          "internalType": "uint256",
          "name": "_step",
          "type": "uint256"
        },
        {
          "indexed": false,
          "internalType": "address",
          "name": "_itemaddress",
          "type": "address"
        }
      ],
      "name": "SuppyChainStep",
      "type": "event"
    },
    {
      "inputs": [],
      "name": "isOwner",
      "outputs": [
        {
          "internalType": "bool",
          "name": "",
          "type": "bool"
        }
      ],
      "stateMutability": "view",
      "type": "function",
      "constant": true
    },
    {
      "inputs": [
        {
          "internalType": "uint256",
          "name": "",
          "type": "uint256"
        }
      ],
      "name": "items",
      "outputs": [
        {
          "internalType": "string",
          "name": "_identifier",
          "type": "string"
        },
        {
          "internalType": "uint256",
          "name": "_itemPrice",
          "type": "uint256"
        },
        {
          "internalType": "enum ItemManager.SuppyChainState",
          "name": "_state",
          "type": "uint8"
        },
        {
          "internalType": "contract Item",
          "name": "_item",
          "type": "address"
        }
      ],
      "stateMutability": "view",
      "type": "function",
      "constant": true
    },
    {
      "inputs": [],
      "name": "owner",
      "outputs": [
        {
          "internalType": "address",
          "name": "",
          "type": "address"
        }
      ],
      "stateMutability": "view",
      "type": "function",
      "constant": true
    },
    {
      "inputs": [
        {
          "internalType": "string",
          "name": "_identifier",
          "type": "string"
        },
        {
          "internalType": "uint256",
          "name": "_itemPrice",
          "type": "uint256"
        }
      ],
      "name": "createItem",
      "outputs": [],
      "stateMutability": "nonpayable",
      "type": "function"
    },
    {
      "inputs": [
        {
          "internalType": "uint256",
          "name": "_itemIndex",
          "type": "uint256"
        }
      ],
      "name": "triggerPayment",
      "outputs": [],
      "stateMutability": "payable",
      "type": "function",
      "payable": true
    },
    {
      "inputs": [
        {
          "internalType": "uint256",
          "name": "_itemIndex",
          "type": "uint256"
        }
      ],
      "name": "triggerDelivery",
      "outputs": [],
      "stateMutability": "nonpayable",
      "type": "function"
    }
  ],
  "bytecode": "0x608060405234801561001057600080fd5b50336000806101000a81548173ffffffffffffffffffffffffffffffffffffffff021916908373ffffffffffffffffffffffffffffffffffffffff160217905550611140806100606000396000f3fe6080604052600436106100555760003560e01c8063800fb83f1461005a5780638c551742146100885780638da5cb5b1461015a5780638f32d59b1461019b578063bfb231d2146101c8578063cd31831e146102b2575b600080fd5b6100866004803603602081101561007057600080fd5b81019080803590602001909291905050506102ed565b005b34801561009457600080fd5b50610158600480360360408110156100ab57600080fd5b81019080803590602001906401000000008111156100c857600080fd5b8201836020820111156100da57600080fd5b803590602001918460018302840111640100000000831117156100fc57600080fd5b91908080601f016020809104026020016040519081016040528093929190818152602001838380828437600081840152601f19601f82011690508083019250505050505050919291929080359060200190929190505050610522565b005b34801561016657600080fd5b5061016f6107c4565b604051808273ffffffffffffffffffffffffffffffffffffffff16815260200191505060405180910390f35b3480156101a757600080fd5b506101b06107e8565b60405180821515815260200191505060405180910390f35b3480156101d457600080fd5b50610201600480360360208110156101eb57600080fd5b810190808035906020019092919050505061083f565b604051808060200185815260200184600281111561021b57fe5b81526020018373ffffffffffffffffffffffffffffffffffffffff168152602001828103825286818151815260200191508051906020019080838360005b83811015610274578082015181840152602081019050610259565b50505050905090810190601f1680156102a15780820380516001836020036101000a031916815260200191505b509550505050505060405180910390f35b3480156102be57600080fd5b506102eb600480360360208110156102d557600080fd5b8101908080359060200190929190505050610934565b005b34600160008381526020019081526020016000206001015414610378576040517f08c379a000000000000000000000000000000000000000000000000000000000815260040180806020018281038252601b8152602001807f4f6e6c792046756c6c205061796d656e7473204163636570746564000000000081525060200191505060405180910390fd5b6000600281111561038557fe5b6001600083815260200190815260200160002060020160009054906101000a900460ff1660028111156103b457fe5b14610427576040517f08c379a000000000000000000000000000000000000000000000000000000000815260040180806020018281038252601c8152602001807f4974656d206973204675727468657220696e2074686520636861696e0000000081525060200191505060405180910390fd5b600180600083815260200190815260200160002060020160006101000a81548160ff0219169083600281111561045957fe5b02179055507fab0fc281390347d31b905809939478c8b85d09c0764302a127a056331809d508816001600084815260200190815260200160002060020160009054906101000a900460ff1660028111156104af57fe5b6001600085815260200190815260200160002060020160019054906101000a900473ffffffffffffffffffffffffffffffffffffffff16604051808481526020018381526020018273ffffffffffffffffffffffffffffffffffffffff168152602001935050505060405180910390a150565b60008054906101000a900473ffffffffffffffffffffffffffffffffffffffff1673ffffffffffffffffffffffffffffffffffffffff163373ffffffffffffffffffffffffffffffffffffffff16146105e3576040517f08c379a00000000000000000000000000000000000000000000000000000000081526004018080602001828103825260118152602001807f596f7520617265206e6f74204f776e657200000000000000000000000000000081525060200191505060405180910390fd5b600030826002546040516105f690610ba0565b808473ffffffffffffffffffffffffffffffffffffffff1681526020018381526020018281526020019350505050604051809103906000f080158015610640573d6000803e3d6000fd5b50905082600160006002548152602001908152602001600020600001908051906020019061066f929190610bad565b508160016000600254815260200190815260200160002060010181905550600060016000600254815260200190815260200160002060020160006101000a81548160ff021916908360028111156106c257fe5b02179055508060016000600254815260200190815260200160002060020160016101000a81548173ffffffffffffffffffffffffffffffffffffffff021916908373ffffffffffffffffffffffffffffffffffffffff1602179055507fab0fc281390347d31b905809939478c8b85d09c0764302a127a056331809d50860025460016000600254815260200190815260200160002060020160009054906101000a900460ff16600281111561077357fe5b83604051808481526020018381526020018273ffffffffffffffffffffffffffffffffffffffff168152602001935050505060405180910390a1600260008154809291906001019190505550505050565b60008054906101000a900473ffffffffffffffffffffffffffffffffffffffff1681565b60008060009054906101000a900473ffffffffffffffffffffffffffffffffffffffff1673ffffffffffffffffffffffffffffffffffffffff163373ffffffffffffffffffffffffffffffffffffffff1614905090565b6001602052806000526040600020600091509050806000018054600181600116156101000203166002900480601f0160208091040260200160405190810160405280929190818152602001828054600181600116156101000203166002900480156108eb5780601f106108c0576101008083540402835291602001916108eb565b820191906000526020600020905b8154815290600101906020018083116108ce57829003601f168201915b5050505050908060010154908060020160009054906101000a900460ff16908060020160019054906101000a900473ffffffffffffffffffffffffffffffffffffffff16905084565b60008054906101000a900473ffffffffffffffffffffffffffffffffffffffff1673ffffffffffffffffffffffffffffffffffffffff163373ffffffffffffffffffffffffffffffffffffffff16146109f5576040517f08c379a00000000000000000000000000000000000000000000000000000000081526004018080602001828103825260118152602001807f596f7520617265206e6f74204f776e657200000000000000000000000000000081525060200191505060405180910390fd5b60016002811115610a0257fe5b6001600083815260200190815260200160002060020160009054906101000a900460ff166002811115610a3157fe5b14610aa4576040517f08c379a00000000000000000000000000000000000000000000000000000000081526004018080602001828103825260098152602001807f4e6f74205061696420000000000000000000000000000000000000000000000081525060200191505060405180910390fd5b60026001600083815260200190815260200160002060020160006101000a81548160ff02191690836002811115610ad757fe5b02179055507fab0fc281390347d31b905809939478c8b85d09c0764302a127a056331809d508816001600084815260200190815260200160002060020160009054906101000a900460ff166002811115610b2d57fe5b6001600085815260200190815260200160002060020160019054906101000a900473ffffffffffffffffffffffffffffffffffffffff16604051808481526020018381526020018273ffffffffffffffffffffffffffffffffffffffff168152602001935050505060405180910390a150565b6104b280610c5983390190565b828054600181600116156101000203166002900490600052602060002090601f016020900481019282610be35760008555610c2a565b82601f10610bfc57805160ff1916838001178555610c2a565b82800160010185558215610c2a579182015b82811115610c29578251825591602001919060010190610c0e565b5b509050610c379190610c3b565b5090565b5b80821115610c54576000816000905550600101610c3c565b509056fe608060405234801561001057600080fd5b506040516104b23803806104b28339818101604052606081101561003357600080fd5b81019080805190602001909291908051906020019092919080519060200190929190505050816000819055508060028190555082600360006101000a81548173ffffffffffffffffffffffffffffffffffffffff021916908373ffffffffffffffffffffffffffffffffffffffff1602179055505050506103f9806100b96000396000f3fe6080604052600436106100385760003560e01c80632986c0e5146103045780633c8da5881461032f57806389794d001461035a576102ff565b366102ff576000600154146100b5576040517f08c379a00000000000000000000000000000000000000000000000000000000081526004018080602001828103825260148152602001807f4974656d206973207061696420616c726561647900000000000000000000000081525060200191505060405180910390fd5b346000541461012c576040517f08c379a000000000000000000000000000000000000000000000000000000000815260040180806020018281038252601a8152602001807f4f6e6c792066756c6c207061796d656e747320616c6c6f77656400000000000081525060200191505060405180910390fd5b346001600082825401925050819055506000600360009054906101000a900473ffffffffffffffffffffffffffffffffffffffff1673ffffffffffffffffffffffffffffffffffffffff1634600254604051602401808281526020019150506040516020818303038152906040527f800fb83f000000000000000000000000000000000000000000000000000000007bffffffffffffffffffffffffffffffffffffffffffffffffffffffff19166020820180517bffffffffffffffffffffffffffffffffffffffffffffffffffffffff83818316178352505050506040518082805190602001908083835b6020831061023b5780518252602082019150602081019050602083039250610218565b6001836020036101000a03801982511681845116808217855250505050505090500191505060006040518083038185875af1925050503d806000811461029d576040519150601f19603f3d011682016040523d82523d6000602084013e6102a2565b606091505b50509050806102fc576040517f08c379a000000000000000000000000000000000000000000000000000000000815260040180806020018281038252602c815260200180610398602c913960400191505060405180910390fd5b50005b600080fd5b34801561031057600080fd5b50610319610385565b6040518082815260200191505060405180910390f35b34801561033b57600080fd5b5061034461038b565b6040518082815260200191505060405180910390f35b34801561036657600080fd5b5061036f610391565b6040518082815260200191505060405180910390f35b60025481565b60005481565b6001548156fe546865205472616e73616374696f6e20776173276e74207375636365737366756c2c2063616e63656c696e67a2646970667358221220ac812b92b09d6d3e0d812664fbd1f7bad4d8764c9e4999c8e118b0a9df12ab0864736f6c63430007040033a2646970667358221220789200ff7492c43f480f0754af924faee5c1f146fcb9285ef54ef304c84ff7d564736f6c63430007040033",
  "source": "// SPDX-License-Identifier: MIT\r\npragma solidity ^0.7.4;\r\n\r\nimport \"./Items.sol\";\r\nimport \"./Ownerable.sol\";\r\n\r\ncontract ItemManager is Ownerable{\r\n\r\n    enum SuppyChainState{Created,Paid,Delivered}\r\n    \r\n    struct S_Item{\r\n        string _identifier;\r\n        uint _itemPrice;\r\n        ItemManager.SuppyChainState _state;\r\n        Item _item;\r\n    }\r\n    \r\n    mapping(uint => S_Item) public items;\r\n    uint itemIndex;\r\n    \r\n    event SuppyChainStep(uint _itemIndex, uint _step,address _itemaddress);\r\n    \r\n    function createItem(string memory _identifier,uint _itemPrice) public onlyOwner{\r\n        \r\n        Item item=new Item(this,_itemPrice,itemIndex);\r\n        items[itemIndex]._identifier=_identifier;\r\n        items[itemIndex]._itemPrice=_itemPrice;\r\n        items[itemIndex]._state=ItemManager.SuppyChainState.Created;\r\n        items[itemIndex]._item=item;\r\n        emit SuppyChainStep(itemIndex, uint(items[itemIndex]._state),address(item));\r\n        \r\n        itemIndex++;\r\n    }\r\n    function triggerPayment(uint _itemIndex) public payable{\r\n        require(items[_itemIndex]._itemPrice == msg.value , \"Only Full Payments Accepted\");\r\n        require(items[_itemIndex]._state == SuppyChainState.Created , \"Item is Further in the chain\");\r\n        items[_itemIndex]._state =SuppyChainState.Paid;\r\n        emit SuppyChainStep(_itemIndex, uint(items[_itemIndex]._state),address(items[_itemIndex]._item));\r\n    }\r\n    function triggerDelivery(uint _itemIndex) public onlyOwner{\r\n        require(items[_itemIndex]._state == SuppyChainState.Paid, \"Not Paid \");\r\n        items[_itemIndex]._state =SuppyChainState.Delivered;\r\n        emit SuppyChainStep(_itemIndex, uint(items[_itemIndex]._state),address(items[_itemIndex]._item));\r\n        \r\n    }\r\n}",
  "sourcePath": "D:\\Crypto\\Learning\\EthereumLearning\\Supply Chain Use Case\\Truffle\\contracts\\ItemManager.sol",
  "compiler": {
    "name": "solc",
    "version": "0.7.4+commit.3f05b770.Emscripten.clang"
  },
  "schemaVersion": "3.0.20",
  "updatedAt": "2021-04-14T20:36:44.868Z",
  "networkType": "ethereum",
  "devdoc": {
    "kind": "dev",
    "methods": {},
    "version": 1
  },
  "userdoc": {
    "kind": "user",
    "methods": {},
    "version": 1
  }
}